:100000000C9438000C9469000C9469000C946900FD
:100010000C9469000C9469000C9469000C946900BC
:100020000C9469000C9469000C9469000C946900AC
:100030000C9469000C9469000C9469000C9469009C
:100040000C9469000C9469000C9469000C9469008C
:100050000C9469000C9469000C9469000C9469007C
:100060000C9469000C9469000C9469000C9469006C
:1000700011241FBECFEFD4E0DEBFCDBF0E944400ED
:080080000C944200F894FFCF3C
:1000880081B38E7F81BB81B3826081BB8FEF8ABBD6
:1000980084BB10BC85E089B980E18AB98EE080BD57
:1000A80015BA5F9BFECF8CB185BB803FC9F79BB368
:1000B80081E089278BBB2FE38DE093E021508040BE
:0A00C8009040E1F700C00000EBCF0C
:0400D2000C9400008A
:00000001FF
