:100000000C9438000C9465000C9465000C94650009
:100010000C9465000C9465000C9465000C946500CC
:100020000C9465000C9465000C9465000C946500BC
:100030000C9465000C9465000C9465000C946500AC
:100040000C9465000C9465000C9465000C9465009C
:100050000C9465000C9465000C9465000C9465008C
:100060000C9465000C9465000C9465000C9465007C
:1000700011241FBECFEFD4E0DEBFCDBF0E944400ED
:080080000C944200F894FFCF3C
:1000880081B3826081BB81B38E7F81BB82B3816083
:1000980082BB1ABA10BC85E089B988E08AB98EE0BB
:1000A80080BDC899FECF5D9BFECF80EF8CB92FE352
:1000B8008DE093E0215080409040E1F700C00000BF
:0200C800F0CF77
:0400CA000C94000092
:00000001FF
