:100000000C943B000C94D1000C94D1000C94D100C2
:100010000C94D1000C94D1000C94D1000C94D1001C
:100020000C94D1000C94D1000C94D1000C94D1000C
:100030000C94D1000C94D1000C94D1000C94D100FC
:100040000C94D1000C94D1000C94D1000C94D100EC
:100050000C94D1000C94D1000C94D1000C94D100DC
:100060000C94D1000C94D1000C94D1000C94D100CC
:1000700001000108800011241FBECFEFD4E0DEBFD5
:10008000CDBFE0E7F0E040E017C0B591A591359114
:100090002591059107FD0CC095918591EF01F92FF0
:1000A000E82F05900D92A217B307D9F7FE0104C0FF
:1000B0001D92A217B307E1F7E537F40731F70E9465
:0A00C00065000C946300F894FFCF74
:1000CA00CF93DF93CDB7DEB764970FB6F894DEBF50
:1000DA000FBECDBF15E0FE01319684E1DF011D920E
:1000EA008A95E9F781E08A8382E08B8393E09C8397
:1000FA0094E09D831E8396E09F8397E0988798E01B
:10010A00998799E09A879AE09B879BE09C879CE075
:10011A009D879DE09E879EE09F879FE0988B90EF4A
:10012A0091BB9FEF9ABB14BA87BB86EC8BBB93B388
:10013A0092708BB321E0803C09F020E081E09111BC
:10014A0080E0822311F086EC8BBB0E94C200909360
:10015A000301809302018031910549F3E1E0F0E067
:10016A00EC0FFD1FE80FF91F8081811303C080EC9B
:0A017A008BBBDDCF86EC8BBBDACF28
:1001840018BA83B3833041F480B38F7090E09093B6
:0E019400030180930201089580E190E0089538
:0401A2000C940000B9
:00000001FF
